:020000040800F2
:10000000000005203D0600084125000843250008A2
:100010004525000847250008492500080000000084
:10002000000000000000000000000000D17E000879
:100030004B25000800000000617F0008AB77000836
:100040008D0600088D0600088D0600088D06000844
:100050008D0600088D0600088D0600088D06000834
:100060008D0600088D0600088D0600088D06000824
:100070008D0600084D2500088D060008592500084A
:100080008D0600088D0600088D0600088D06000804
:100090008D0600088D0600088D0600088D060008F4
:1000A0008D0600088D0600088D0600088D060008E4
:1000B0008D0600088D0600088D0600088D060008D4
:1000C0008D0600088D0600088D0600088D060008C4
:1000D0008D060008652500088D0600088D060008BD
:1000E0008D0600088D0600088D0600088D060008A4
:1000F0008D0600088D0600088D0600088D06000894
:100100008D0600088D0600088D0600088D06000883
:10011000712500088D0600087D2500088D06000861
:100120008D0600088D0600088D0600088D06000863
:100130008D0600088D0600088D0600088D06000853
:100140008D0600088D0600088D0600088D06000843
:100150008D0600088D0600088D0600088925000818
:100160008D0600088D0600088D0600088D06000823
:100170008D0600088D0600088D06000800000000AE
:100180008D0600088D0600088D0600088D06000803
:100190008D0600088D0600088D0600088D060008F3
:1001A000952500088D060008A12500088D06000889
:0401B000AD25000871
:1001C00010B5054C237833B9044B13B10448AFF391
:1001D00000800123237010BD4001002000000000BA
:1001E000F02A020808B5034B1BB103490348AFF3DB
:1001F000008008BD0000000044010020F02A020831
:1002000001F0FF01102A2BDB10F0070F08D010F8C7
:10021000013B013A8B422DD010F0070F42B3F6D1CB
:10022000F0B441EA012141EA014122F007047FF0E4
:1002300000070023F0E80256083C85EA010586EA3B
:10024000010685FA47F5A3FA87F586FA47F6A5FA77
:1002500087F68EB9EED1F0BC01F0FF0102F0070283
:1002600032B110F8013B013A83EA010313B1F8D12E
:100270000020704701387047002D06BF354603380F
:10028000073815F0010F07D1013015F4807F02BF48
:10029000013015F4C03F0130F0BC0138704700BF99
:1002A0007BB972B90029BEBF00204FF0004106E0C3
:1002B00008BF00281CBF6FF000414FF0FF3000F076
:1002C000BBB9ADF1080C6DE904CE002909DB002BA8
:1002D0001ADB00F04DF8DDF804E0DDE9022304B09C
:1002E0007047404261EB4101002B1BDB00F040F8FE
:1002F000DDF804E0DDE9022304B0404261EB410196
:10030000524263EB43037047524263EB430300F0F6
:100310002FF8DDF804E0DDE9022304B0404261EB90
:1003200041017047524263EB430300F021F8DDF8CE
:1003300004E0DDE9022304B0524263EB430370475B
:1003400053B94AB9002908BF00281CBF4FF0FF313C
:100350004FF0FF3000F070B9ADF1080C6DE904CE3C
:1003600000F006F8DDF804E0DDE9022304B0704790
:100370002DE9F047089E0D4604460F46002B4AD152
:100380008A42944665D9B2FA82F343B102FA03FC79
:10039000C3F120029F4020FA02F217439C404FEA2B
:1003A0001C4E1FFA8CF5B7FBFEF1220C0EFB1177E9
:1003B00042EA074201FB05F090420AD91CEB020217
:1003C00001F1FF3780F01C81904240F2198102391F
:1003D0006244121AA4B2B2FBFEF00EFB102244EAF1
:1003E000024400FB05F5A5420AD91CEB040400F108
:1003F000FF3280F00781A54240F204816444023854
:1004000040EA0140641B00211EB1DC400023C6E924
:100410000043BDE8F0878B4208D9002E00F0ED8044
:100420000021C6E900050846BDE8F087B3FA83F16C
:10043000002949D1AB4202D3824200F2F880841AEB
:1004400065EB030201201746002EE2D0C6E9004703
:10045000DFE702B9FFDEB2FA82F3002B40F09080B2
:100460008A1A4FEA1C471FFA8CFE0121B2FBF7F5EE
:1004700007FB1520220C42EA00420EFB05F09042D9
:1004800008D91CEB020205F1FF3802D2904200F2BB
:10049000CB804546121AA4B2B2FBF7F007FB10223C
:1004A00044EA02440EFB00FEA64508D91CEB0404F6
:1004B00000F1FF3202D2A64500F2BB801046A4EB49
:1004C0000E0440EA05409FE7C1F120078B4022FA65
:1004D00007FC4CEA030C05FA01F420FA07F3FD408F
:1004E0004FEA1C492343B5FBF9F81FFA8CFE09FBC0
:1004F00018551C0C44EA054408FB0EF5A54202FA07
:1005000001F200FA01F00BD91CEB040408F1FF3AE8
:1005100080F08880A54240F28580A8F102086444FA
:10052000641B9DB2B4FBF9F309FB134445EA044490
:1005300003FB0EFEA64508D91CEB040403F1FF35AE
:100540006CD2A6456AD9023B644443EA0843A3FB44
:100550000295A4EB0E04AC42C846AE4656D353D027
:1005600056B1B0EB080264EB0E0404FA07F7CA4078
:10057000CC401743C6E9007418460021BDE8F08757
:10058000C3F1200102FA03FC20FA01F225FA01F17D
:100590009D402A434FEA1C471FFA8CFEB1FBF7F03F
:1005A00007FB1015110C41EA054100FB0EF58D42C9
:1005B00004FA03F408D91CEB010100F1FF382FD233
:1005C0008D422DD902386144491B92B2B1FBF7F537
:1005D00007FB151142EA014205FB0EF1914208D9D1
:1005E0001CEB020205F1FF3816D2914214D9023DEC
:1005F0006244521A45EA004138E73146304608E77E
:100600003946E6E61046FBE64845A9D2B9EB0208B2
:1006100065EB0C0E013BA3E74546EAE72B4694E762
:100620004046D1E7D0467BE7023D624432E70846C8
:100630000AE76444023842E7704700BFDFF834D06D
:10064000002103E00C4B5B58435004310B480C4B2A
:1006500042189A42F6D30B4A02E0002342F8043BC8
:10066000094B9A42F9D303F0E5FC21F0C5FC01F0F7
:10067000F9F8704700000520884B020800000020B0
:100680004001002040010020B8E30020FEE7704751
:1006900008B500F09DFEBDE8084000F01FBE00F068
:1006A00099BE0021084603F02BB8002003F062B881
:1006B00040687047416070474FF0E022D2F8FC3D3F
:1006C00043F08073C2F8FC3DA2F55042136843F03A
:1006D000010313607047511A01EB5301B1FBF3F0B2
:1006E00070470000014B5868704700BF001000E0E1
:1006F000704710B50C21044620F077FA204610BD53
:10070000036810B51B69044631B19847A268636855
:100710009B1A1844606010BD9847A060FBE77047C3
:100720007047000008B5FFF7BCFF024B00221A60BB
:1007300008BD00BF5C01002070B50D46FFF7B5FF96
:100740000B4A937856781178D370C4B213F0010035
:100750009670517014700AD016F0010007D011F095
:10076000010004D0E3075ABF01202870002070BDAB
:100770005C01002010B50421044620F036FA204622
:1007800010BD704710B50421044620F02EFA204613
:1007900010BD000008B54FF4F0714FF4487003F03D
:1007A0009DFB074B10B901221A7008BD1B78002B66
:1007B000FBD1044B044A0548272121F05DF900BF15
:1007C00060010020B02B0208C32B0208ED2B0208A9
:1007D0007FB50B4B1C780E4615465CB101A803F0A3
:1007E000B5FB9DF8043043B1BDF806303360BDF869
:1007F0000A302B60204604B070BD1C46FAE700BFEB
:1008000060010020012801460BD0022810D0A8B9B1
:100810000B4B1A68B2FA82F252090421094804F01B
:10082000F5BC074B5A68B2FA82F252094021F5E74B
:10083000034B9A68B2FA82F25209EFE7704700BFA1
:100840006401002000000240012801460BD002286C
:1008500010D0A8B90B4B1A68003A18BF0122042126
:10086000094804F0D3BC074B5A68003A18BF01226C
:100870004021F5E7034B9A68003A18BF0122EFE7E1
:10088000704700BF640100200000024001280146BB
:1008900006D0022801D028B90421034804F0BBBCCB
:1008A0004021FAE7704700BF00000240012808B568
:1008B00001460AD0022801D048B90421054804F0B5
:1008C0009FFC431E5842584108BD4021F6E70020D6
:1008D000F7E700BF0000024070B5084D0024012674
:1008E000E0B2FFF7E3FF18B12B68012B18BF2E60B1
:1008F0000134052C05F10405F2D170BD640100201E
:10090000012380F8781080F8793070470020704714
:10091000034B4164003918BF01211970704700BFB3
:100920007FD7002000207047836B0BB10846184723
:1009300070474FF6FF707047406803689B6918471F
:1009400070477047014B1868704700BF7401002062
:100950007047000038B50446074D00F029FE00231B
:1009600084F84A302846FFF7A7FE012384F8703048
:10097000024B2561636138BD800100207C010020AD
:100980000368044607B5D3F88030984723682046AB
:100990009B6F984700F02EFA236820461B6F9847FC
:1009A0000021064800912923152204F018FA00F0CE
:1009B00021FA236820461B6F9847F8E7C03C0020C7
:1009C00010B504460AF0D0F823682046D3F8AC30BE
:1009D000BDE81040184700F0DABD00F000BE00F09E
:1009E00000BE00F0CBBD00F011BE00F003BE000061
:1009F000024B00221A7009F05FBB00BF14000020F8
:100A000010B5044609F064FB94F84B3013B1024B67
:100A100001221A7010BD00BF1400002009F010BBA5
:100A200010B57C21044620F0E0F8204610BD90F877
:100A30007A301BB1406803681B6818471846704736
:100A400010B590F8341090F878400C4B8C421A781E
:100A500009D03AB90A4A0B491488088810800C80DA
:100A600001221A7010BD002AFCD0054A05491488DD
:100A7000088810800C800022F3E700BF78D70020A0
:100A800074D7002076D7002008B5094B1B888B420D
:100A900003D8084B1B88934205D9074B074A0848DF
:100AA0009E2120F0E9FF074B1980074B1A8008BDF3
:100AB00074D7002076D70020502C0208B32C0208EF
:100AC000F62C02087AD700207CD7002070B50D469E
:100AD00019460B4B1D6035B90A4B0B4A0B4840F2C7
:100AE000D22120F0C9FFC0E90F52094B003A18BFCC
:100AF00001221A700368BDE87040D3F88C301847A3
:100B0000740100203B2D0208732D0208F62C020808
:100B10007ED70020012807B503460AD84B780093FA
:100B20000B7808481522002104F059F903B05DF84C
:100B300004FB01910A5C009200213922014804F073
:100B40005FF9F3E7C03C002037B50B4A0B4C02239A
:100B5000152513705570019244220092002139220C
:100B6000204604F04DF90021009135232A46204605
:100B700004F035F903B030BD8C010020C03C0020EA
:100B800007B50190FFF7E0FF019803B05DF804EBB3
:100B900000F0FCBC07B5074B03EB80002A23019053
:100BA0000093392204230021034804F029F903B0FB
:100BB0005DF804FB04000020C03C002070B5154D1A
:100BC00004460020FFF71EFE2A6892F86A300133BF
:100BD00082F86A3000F002F90F4B28681A781B7807
:100BE00080F84A2023B10D4D2B7803F0FF0623B186
:100BF000BDE870400020FFF727BE09F0B5FF084BA5
:100C000030461E60FFF7C6FF204604F0D8F80123E7
:100C10002B7070BD80D70020140000208E010020B2
:100C200078010020334B1A68013270B51A60324BDC
:100C3000324C1968324B032A05462EDCD4F80404E2
:100C400020F00800C4F804044FF4C87000FB02113F
:100C5000C3F8AC100CBFE823C823023328491B0497
:100C600043F4F1730B61274B4B61A3F5F073C1F8AB
:100C70008830254BC1F8B030012310464B62FFF796
:100C800089FF1E4AD2F8043443F008032846C2F80C
:100C90000434BDE8704004F092B8D4F8042422F083
:100CA0000802C4F80424194AC3F8AC101A6102F10E
:100CB00001125A61164AC3F88820134AC3F8B020BB
:100CC00001225A620020FFF765FFD4F8043443F094
:100CD0000803C4F804340020FFF7B6FD0D4B0022D2
:100CE0001A700D4B186820B10368BDE870401B6A8C
:100CF000184770BD7801002074010020006C01408D
:100D000000680140E301CA0093018006E201CA00C5
:100D10000300CA008E01002080D7002008B5044BD4
:100D20000146186801B1012109F038FF012008BD12
:100D300080D70020054B064800225A609A60054A79
:100D40001A60054B0360FFF7EDBC00BF8001002077
:100D50007C010020742B02089C2B0208012108B59D
:100D60000022084606F0ADFD0A4B186028B90A4B70
:100D70000A4A28210A4820F07FFE0022042101208F
:100D800006F045FE074B186018B9074B034A2C21A3
:100D9000F0E708BD940100209C2E0208E52E020811
:100DA000142F0208900100205E2F0208024B4FF022
:100DB000FF31186806F0CFBD94010020014B186880
:100DC00006F0F4BD94010020024B0021186806F0E3
:100DD000C2BD00BF94010020FFF7F0BF03480449E3
:100DE000006800231A4606F04DBE00BF90010020A7
:100DF0001800002013B5084C00231A4601A92068EA
:100E000006F070FE20684FF0FF33002201A906F0C3
:100E100069FE02B010BD00BF9001002003685B6C4A
:100E200018470120704703689B6A184740F2EF306B
:100E300070470000054B0360054B4FF08062C3F81C
:100E40008820BFF34F8FBFF36F8F7047F8300208D1
:100E500000E100E010B504464FF45A61FFF7EAFFE5
:100E600020461FF0C2FE204610BD000082B00023C5
:100E700001930D4B1A6B42F400021A631A6B02F4D1
:100E800000020192019A1A6942F400021A611A6979
:100E900022F400021A61054B054A1A61054B4FF016
:100EA00080629A6002B0704700380240C03B002068
:100EB000B90E000800E100E0024B1B6858680368A7
:100EC0005B69184780D7002070B5044625460A4B59
:100ED0000C30002660602672667245F8203B602266
:100EE000294609F0B1FF04F55A63EE602435AB42A0
:100EF000FBD1204670BD00BFF830020808B50B29B1
:100F00000BD8DFE801F01206100A0A0A0A080808DE
:100F10000808012008BD0520FCE7054B054A0648E6
:100F2000652120F0A9FD0020F4E70220F2E700BFD0
:100F3000A02F0208BB2F02080530020808B50A29B5
:100F400009D8DFE801F010060E08080808060606B2
:100F50000600012008BD054B054A0648862120F001
:100F60008BFD0020F6E70220F4E700BFA02F020867
:100F70004D300208053002082DE9F84391F81D8034
:100F80000C4641460746FFF7B9FF94F81E90054608
:100F900049463846FFF7B2FF494606463846FFF74E
:100FA000CDFFA18A628B434B521A1A649A61228B3D
:100FB000521A1A61E28A586342EA01425A6420696D
:100FC0006268D863DA602768802F28D0227F0FD824
:100FD000202F65D0402F63D0042F1AD0354B45EA1F
:100FE000026545F40035C845DD615FD0324A44E012
:100FF000B7F5807F04D0B7F5007FEFD12F4900E02F
:101000002F4941EA0262DA61E2681A625E6258615F
:1010100032E045EA026242F40032DA61F6E7A7689C
:101020003A1DDA62217F3A7845EA016545F40035D8
:10103000DD615E62586142B1012A21D0214B224A12
:1010400022484FF4887120F017FDDA69798822F47C
:101050007F42013922F0100242EA0122DA610121C5
:10106000144BDA6942F02002DA61DA699206FCD4A4
:1010700010229A600029B9D0154A1A60BDE8F88399
:10108000DA69788822F47F42013822F0100242EABD
:101090000022FF3942F0100218BF0121DA61DFE7B8
:1010A00045EA0262034B42F40032B6E740F2012205
:1010B000E3E700BF00B002400102010009000200A6
:1010C0000A00020098300208B23002080530020817
:1010D0000102020038B50C46897FFFF72FFFA58A71
:1010E000E28A164B2169586342EA05425A64628BD0
:1010F000D963521B1A642568082D0ED19A611A61B2
:101100005862207F0E4A42EA0062DA61E2681A629F
:101110000C4A5961D9601A6038BD0022D8611A6141
:10112000E1680A0A480902F4784200F4FC600243CC
:10113000C1F3C4010A439A63034AECE700B00240DA
:10114000090001000102020001020300034B1A68BA
:10115000D207FCD423229A60704700BF00B002403F
:1011600030B50F4C2568ED07FCD423250904A56094
:1011700041F001010225FF2B65636164E0630AD041
:101180000849656241EA0363E361074B22626061DB
:10119000E060236030BDE561039BA363034BF8E788
:1011A00000B002400900010001000200010003003C
:1011B000012070470C2070470C2303FB010008300E
:1011C00070470C2303FB0100083070470120704773
:1011D00041F2E400704741F2E40303FB01000830F0
:1011E000704741F2E40303FB01000830704701201F
:1011F00070471020704700EB01100830704700EB7B
:10120000011008307047084601F0D0BB10B5034B01
:101210000360044608F069FC204610BDB0310208A6
:1012200010B50446FFF7F2FF204614211FF0DDFC45
:10123000204610BD10B5034B0360044608F055FC72
:10124000204610BD7C31020810B50446FFF7F2FFBE
:10125000204641F2EC011FF0C8FC204610BD000002
:1012600010B5034B0360044608F03FFC204610BD58
:101270004831020810B50446FFF7F2FF2046182156
:101280001FF0B3FC204610BD10B5094B03600446A7
:1012900000F588501830FFF7B9FF04F12C00FFF774
:1012A000C9FF04F11400FFF7DBFF204610BD00BFAB
:1012B000E431020808B50248FFF7E6FF08BD00BFA9
:1012C0009C01002010B50446FFF7DEFF204641F6E2
:1012D0008C211FF08AFC204610BD00002DE9F3414F
:1012E00001F0D8F9054601F0D9F90024014623465A
:1012F00028462246009411F0DDFA274B274A1A604F
:10130000204601F09DFE264B264A274D9A6027482D
:1013100011F038FA2B68BFF35B8FDB0736D4284611
:101320001FF065FC90B3224C224F234B236007F63D
:10133000180604F1140004F12C086060C4F8088059
:10134000E760266108F0D2FB1C4B6361404608F061
:10135000CDFB1B4BE362384608F0C8FB04F5805315
:10136000184AC3F8182103F5967001F0EDFE2246E5
:1013700007F11401304601F0DDFE304601F016FBA6
:10138000114820F097FB28461FF03DFC0F4802B0A3
:10139000BDE8F041FFF7DEBAE4D70020642A002060
:1013A000682A0020281C0020980100201C00002032
:1013B0009C010020B4120020E431020848310208E8
:1013C0007C310208B0310208B5120008E82900207B
:1013D000704700000148FFF7D3BA00BFE82900209A
:1013E00070B5244E244C254D254B23603046FFF725
:1013F0006BFD284615F02AFD22480FF035F8224BE8
:101400002248DC6000224FF48071C3E912122049A7
:101410001A86C3E91A121F4999671F4983F8582091
:101420000B604FF4507101801C485A6601801C48C3
:1014300083F870204FF4F071C3E90422C3E9062257
:10144000C3E90822C3E90A22C3E90E22C3E9102234
:10145000C3E91422C3E917225A67C3E90165018071
:10146000104883F8342001800F490A700F4A1A602F
:1014700070BD00BF481C0020441C0020682A0020CA
:10148000402C0208281C0020E829002074D70020E6
:10149000010000010000010180D700207AD7002060
:1014A00076D700207CD7002078D70020CC2D0208EA
:1014B0000148FFF7BFBC00BF481C00200020704758
:1014C00081807047C18070470181704741817047BA
:1014D0007047704770477047704710B4C4880368FE
:1014E000121B84885B6D091B12B25DF8044B09B2B4
:1014F00018474FF6FF7383814FF0FF330362136881
:10150000C3611060704790F825201AB190F824202C
:1015100002B118607047002070478B8883800120DB
:101520007047704780F82610704790F82600704783
:1015300010B50022B1F90840B1F90A1002804280CA
:101540008480C18010BD0022028042808280C280DF
:1015500070470177704780ED080A704780F82410C3
:10156000704780F825107047012070479830704709
:101570008C3070478430704770470000024B9022D7
:1015800083F85A23704700BF00E100E070477047BE
:101590007047704710B52C2104461FF026FB2046EB
:1015A00010BD10B5BC2104461FF01FFB204610BD26
:1015B00070B5044608F099FD23685D6E0DF028FEB5
:1015C00001462046A8472368D3F8885000232046C8
:1015D000AC461A46BDE870404FF04041604708F005
:1015E00035BD08F096BE90F8252012B103685B69FE
:1015F00018477047044B4FF08062C3F88820BFF350
:101600004F8FBFF36F8F704700E100E0024B4FF048
:1016100080629A60704700BF00E100E070B500236F
:10162000124E8380124B0360336893F858200546AE
:101630000AB1D86C00B998680368DB6A98473368C8
:10164000B0FA80F4D86C640930B10368DB6A98475B
:10165000002808BF44F001042CB9064B064A07488D
:101660002C2120F009FA284670BD00BF80D7002049
:10167000F4320208F03102084E32020887320208C2
:1016800070B5244E3568BFF35B8F15F001053FD16F
:1016900030461FF0ACFA00283AD01F4C1F4B256192
:1016A00004F13400C4E90035C4E90255E584A562BB
:1016B000A5850FF038F904F158000AF0BFFF184B68
:1016C000A3652046174B40F8843BFFF7A7FF164B56
:1016D000C4F884302433C4F88C306423C4E928353A
:1016E0000023C4F8AC30C4F8B030C4F8B430C4F847
:1016F000B8300E480E4BC4F89050C4F89C50C4F853
:10170000A850C4F8983020F0D5F930461FF07BFA85
:10171000014870BDF02A0020F42A00205C3F020836
:10172000143302088C330208103F020879150008B0
:10173000F03E02080149002007F05CBD1D0D0008C5
:1017400008B5054905484FF4006205F054FF6420D0
:1017500006F0ABF8FBE700BFB02B0020E83E00200E
:10176000F8B5134F134E3868002575540C4606F033
:10177000EAF9A0B10134224631460F4820F089FB36
:101780000E4B0D491B6838681C602A462B4606F034
:1017900079F94FF400622946304620F072FBBDE82B
:1017A000F840044906484FF4006205F024BF00BF2A
:1017B000343F0020B02B0020B4330020303F002005
:1017C000E83E002030B595B01022002109A820F095
:1017D00058FB1422002102A820F053FB00241F4BC9
:1017E00000941A6C42F080521A641B6C03F0805310
:1017F0000093009B1A4B01941A6842F440421A600D
:101800001B6803F4404301930122019B4FF4803392
:10181000CDE9072302254FF480030821CDE90D53BC
:101820004FF4B473CDE90F1304200623CDE912035E
:1018300007A8119505F0D2F804F012FB0F23CDE9AB
:10184000023504944FF480534FF4A054052102A8AC
:10185000CDE9054304F088FE15B030BD00380240E4
:10186000007000402DE98048BBB00024C64D02F056
:10187000EFFBFFF7A7FF142200212DA820F001FBAA
:1018800003942B6BC14843F040032B632B6B03F095
:1018900040030393039B04942B6B43F010032B63CF
:1018A0002B6B03F010030493049B05942B6B43F004
:1018B00002032B632B6B03F002030593059B069435
:1018C0002B6B43F008032B632B6B03F00803069389
:1018D000069B07942B6B43F004032B632B6B03F0E5
:1018E00004030793079B08942B6B43F480732B63CB
:1018F0002B6B03F480730893089B09942B6B43F0C4
:1019000020032B632B6B03F020030993099B0A949C
:101910002B6B43F480632B632B6B03F480630A937C
:101920000A9B0B942B6B43F080032B632B6B03F010
:1019300080030B930B9B0C942B6B43F001032B63E5
:101940002B6B03F001030C930C9B0D942B6B43F456
:1019500000732B632B6B03F40073012208210D939A
:101960000D9B03F053FC8A482246462103F04EFCAF
:1019700088482246802103F049FC0822112383482D
:101980002DA90126CDE92D23CDE92F4403F0B2FA8C
:101990004623CDE92D367E482F9403232DA94FF001
:1019A0008008309303F0A6FA03237A4830932DA9D8
:1019B000CDE92D862F9403F09DFA02942A6B42F410
:1019C00000122A632A6B744D02F400120292052160
:1019D000029A0D20224602F08DFB0D2002F0BCFB86
:1019E000052122460F2002F085FB0F2002F0B4FBF8
:1019F0006A486B4A026002F0CFFB6A4AC5E90A44B2
:101A0000C5E90C442846C5E90024C5E9024402F0B2
:101A1000A1FD3146284602F055FE414622465D486A
:101A2000614D03F0F3FB142002F03EFB32464146C9
:101A3000584803F0EBFB0A2002F036FB2422214633
:101A400017A8109420F01DFA1822214611A820F0A2
:101A500018FA342221462DA820F013FA2C22214610
:101A60000DEB080020F00DFA504A02277D21C5E950
:101A70000024CDE90E1704220EA92846C5E9022646
:101A800002F0E8FE17A92846CDE91764CDE919440C
:101A9000CDE91B44CDE91D441F9403F007F91C2038
:101AA00021214FF00F0CCDE911011921CDE913C10E
:101AB000284611A9CDE9154403F0BBF804221146CC
:101AC000284603F0A5F842F21071284603F0FBF90E
:101AD0002146284602F05BFE4FF4807E4FF40071F1
:101AE000CDE92DE14FF4806A4FF40061CDE92FA1DB
:101AF0004FF480534FF40051CDE931314FF4804918
:101B00004FF48031CDE933914FF4003B4FF4802105
:101B1000CDE935B14FF400234FF08071CDE9373175
:101B200028462DA94FF0C80B399703F03DF8102334
:101B30000DEB08012846CDE922B3CDE928842A9689
:101B4000CDE92044CDE92444CDE9264402F0BAFF92
:101B50002146284602F0A5FF154816498460042254
:101B6000C0E9001420214FF0400CC0E903214FF4DC
:101B7000C071C0E905C14FF480530721CDE92E1291
:101B8000C0E90939309117E00038024000280240CE
:101B900000000240001C0240C03B0020B83B002077
:101BA0000030024000B00240C03C0020006C014008
:101BB000243E0020400100A003232DA9CDE93137A8
:101BC000C0E907442D97339705F0BEF802F070F98D
:101BD00002F020F9342221460DEB080020F051F9E3
:101BE000DFF8FC81DFF8FCE1A8F834404FF0004357
:101BF000C8E900E34FF08043CA22C8E902344FF439
:101C0000F173C8E90923CB2140F2E3134046C8E948
:101C10000B13C8E90446C8E90667C8F8207088F8BD
:101C2000364003F0E7FFFF22CDE9252405204FF0E1
:101C300040424FF4F073CDE9280220A922464046E5
:101C4000CDE92337CDE92AB3CDE9204B2294CDF855
:101C50009CA0ADF8B0408DF8B24004F097F8D8F8E9
:101C60000020936923F001039361284603F084F870
:101C70003146384601F06EFB2823152221462846BE
:101C8000009403F0ACF82DA92846CDE92D44CDE908
:101C90002F44CDE93144CDE93344CDE9354437947F
:101CA00002F082FF4FF448712246404604F09CF84F
:101CB000D8F8002037489369866033439361364BE8
:101CC0001025C0E900361B23C0E90353334D344EC1
:101CD000C0E905A4C0E9074404F0D6F901F060FFAB
:101CE00001F090FE01F006FE2E4B2C622846C5E95D
:101CF0000063C5E90244C5E90494C5E9064403F05C
:101D000091FC284603F036FD2748284B04614FF428
:101D1000E1360C25C0E90036C0E90244C0E90554AB
:101D2000C46105F06FFA2248224BC0E90244C0E9C1
:101D30000036C0E90445C0E9064405F063FA1E4BCD
:101D40001E48C0E90036C0E90244C0E90445C0E9C4
:101D5000064405F057FAFEF79BFCFEF798FC05F0E9
:101D600031FD174A40F60401384605F050FE154B88
:101D7000154A18602146154805F050FD144B154AC8
:101D800018602146144805F049FD144B186005F011
:101D90002BFDFEE7D83D0020001000A0DC3C002019
:101DA00000540040801A0600A03E0020004C004075
:101DB000E83E00200014014000100140583E002081
:101DC0003C340208343F0020183402084117000850
:101DD000B43B0020F43302089F060008B033002013
:101DE000303D0020006801400268034B9A4201D157
:101DF00002F048B9704700BF001000407047000073
:101E000082B00E4B00220092596C41F4804159641B
:101E1000596C01F48041009100990192196C41F0D4
:101E2000805119641B6C03F080530193019B0F21B7
:101E30006FF0010002B002F05DB900BF003802404F
:101E40000268094B9A4282B00BD100230193074BE1
:101E50001A6B42F480521A631B6B03F48053019394
:101E6000019B02B0704700BF0030024000380240C2
:101E700007B50F4B02689A4216D10022A3F5F04332
:101E80000192196B41F4000119631B6B03F4000309
:101E9000019305215A20019B02F02CF95A2003B02E
:101EA0005DF804EB02F058B903B05DF804FB00BF25
:101EB00000B0024010B5044688B01422002103A8E7
:101EC0001FF0DFFF2268174B9A4228D103F54C43DD
:101ED000002401945A6C144842F000625A645A6C0F
:101EE00002F000620192019A02941A6B42F40072AD
:101EF0001A631B6B03F4007302930422029B0223F8
:101F0000CDE9032303A90D23079302F0F3FF5C201F
:101F10002246052102F0EEF85C2002F01DF908B01F
:101F200010BD00BF006C01400024024030B50446E3
:101F300089B01422002103A81FF0A3FF22681A4BC6
:101F40009A422FD1194C1A4800250195236B43F072
:101F500002032363236B03F002030193019B4FF4FD
:101F600040721223CDE9032301210323CDE9051398
:101F7000042303A9079302F0BDFF0295236C43F4E9
:101F800000132364236C03F400130293029B236A5F
:101F900043F400132362236A23F4001323626420B2
:101FA00002F082F809B030BD005400400038024011
:101FB0000004024008B502680A4B9A4210D10A4A4E
:101FC0000A48136C23F4001313644FF4807103F078
:101FD00077F8BDE8084005484FF4007103F070B889
:101FE00008BD00BF00540040003802400004024019
:101FF00010B5044690B03C22002101A81FF041FF1B
:102000002268124B9A421FD1082301934FF4B473F4
:10201000059301A80623089304F07EFB08B1FFF79F
:10202000EDFE0B4B00220092596C41F08061596427
:102030005B6C03F08063009358200521009B02F045
:1020400059F8582002F088F810B010BD006801401F
:1020500000380240F0B5044689B01422002103A8DC
:102060001FF00FFF2268244B9A4242D1234B244891
:10207000002400949A6B42F002029A639A6B02F079
:1020800002020092009A01941A6B42F002021A6353
:102090001A6B02F002020192019A02941A6B42F04A
:1020A00020021A631B6B03F0200302930226032510
:1020B000029B0A27402303A9CDE90336CDE9065741
:1020C00002F018FF4FF49863CDE903360D48092359
:1020D00003A90793CDE9054502F00CFF4FF44073C7
:1020E0000848079703A9CDE90336CDE9054502F075
:1020F00001FF09B0F0BD00BF001000A00038024091
:10210000000402400014024008B50268094B9A42DC
:102110000FD1094A0948936B23F0020393634021CE
:1021200002F0CEFFBDE8084005484FF4F86102F028
:10213000C7BF08BD001000A00038024000040240E4
:1021400000140240F0B506468DB01422002107A805
:102150001FF097FE3368694A934260D1684B694823
:10216000694C002500951A6C42F400221A641A6C1E
:1021700002F400220092009A01951A6B42F00402C8
:102180001A631B6B03F004030193019B4FF4406738
:102190000223CDE907734FF0030C082307A9CDE90B
:1021A0000AC302F0A7FEDFF880E14FF00063C4E944
:1021B00000E320464FF48063C4E90255C4E90435C6
:1021C000C4E90655C4E9085502F00CF808B1FFF758
:1021D00015FE4E48F463A6634D4C4FF00063C4E90E
:1021E0000003402500234FF480622046C4E90253D7
:1021F000C4E90423C4E90633C4E9083301F0F2FF5B
:1022000008B1FFF7FBFDB463342000220521A6636B
:1022100001F070FF342001F09FFF0DB0F0BD3D4A8A
:1022200093423DD1364B3C48002402945A6C42F014
:1022300010025A645A6C02F010020292029A03943D
:102240001A6B42F002021A631A6B02F00202039246
:10225000039A04941A6B42F001021A631B6B03F099
:1022600001030493049B022780230326072507A963
:10227000CDE90737CDE90A6502F03CFE4FF4007363
:1022800026480B9507A9CDE90737CDE9094602F0A5
:1022900031FE25202246052101F02CFF2520BAE73A
:1022A0001F4A9342B9D1164B1E48002405945A6C1C
:1022B00042F020025A645A6C02F020020592059AFC
:1022C00006941A6B42F040021A631B6B03F0400342
:1022D00006934FF48442069B0223CDE90723032192
:1022E0000823CDE90A1307A902F004FE472022467D
:1022F000052101F0FFFE47208DE700BF004C0040A4
:102300000038024000080240003C0020706002409B
:10231000603C002000100140000402400000024028
:10232000001401400018024040600240F0B587B040
:1023300000230393304B1C68002C5AD101221A60F1
:102340002E4B00949A6B2E4842F001029A639B6BCD
:1023500003F001030093022703260C25009B01A92B
:102360004FF68373CDE90137CDE9046502F0C2FD74
:1023700048F233132348059501A9CDE90137CDE98A
:10238000034602F0B7FD4CF203731F48059501A9FF
:10239000CDE90137CDE9034602F0ACFD40F2FF6321
:1023A0001A48059501A9CDE90137CDE9034602F0A8
:1023B000A1FD4FF63F031648059501A9CDE9013768
:1023C000CDE9034602F096FD4FF47F431148059591
:1023D00001A9CDE90137CDE9034602F08BFD0D23BC
:1023E0000D48059501A9CDE90137CDE9034602F075
:1023F00081FD07B0F0BD00BF3C3F00200038024027
:102400000010024000180240000C02400020024070
:1024100000140240001C02400008024008B5174B9F
:102420001A6852BB01221A60154A1648936B23F0B2
:10243000010393634FF6837102F042FE124848F2A3
:10244000331102F03DFE11484CF2037102F038FEE8
:102450000F4840F2FF6102F033FE0E484FF63F0195
:1024600002F02EFE0C484FF47F4102F029FEBDE839
:1024700008400A480D2102F023BE08BD383F002065
:10248000003802400010024000180240000C0240D8
:102490000020024000140240001C024000080240DC
:1024A00070B588B000230293204B1A6C42F01002E2
:1024B0001A641B6C03F010030293054601A903A8DC
:1024C000029B04F00BF9069B4BBB04F0E7F8184E97
:1024D000184B336040F2E733F360174BB0FBF3F374
:1024E000013B7360304600233361B360B36104F095
:1024F000CFFD044680B9304604F08CFC044658B940
:10250000362001F029FE0F2D0DD82246294636200F
:1025100001F0F0FD094B1D60204608B070BD04F0CD
:10252000BDF84000D3E70124F6E700BF00380240C1
:10253000403F00200010004040420F0058000020A3
:102540007047FEE7FEE7FEE7FEE77047014801F04F
:1025500043BF00BF003C0020014801F03DBF00BF69
:10256000603C0020014804F0E3BE00BF583E00205C
:10257000014804F0DDBE00BFA03E0020014804F089
:1025800087BC00BF403F0020014804F0D1BE00BF1F
:10259000E83E0020014803F09CBB00BF303D002016
:1025A000014802F005B800BFC03B0020014802F01E
:1025B00006BA00BFC03C00200120704708B51FF0DC
:1025C00015FD162303604FF0FF3008BD08B51FF05E
:1025D0000DFD16230360FEE770B50D4614460E464A
:1025E000731B9C4201DC204670BDAFF3008006F8EF
:1025F000010BF5E770B50D4614460E46731B9C4261
:1026000001DC204670BD16F8010BAFF30080F5E742
:102610004FF0FF3070474FF400534B60002070477D
:1026200001207047002070470A4A116808B5034628
:1026300009B9094911601068694603448B4206D9FB
:102640001FF0D4FC0C2303604FF0FF3008BD136073
:10265000FCE700BF883F0020B8E30020704710B5BA
:10266000042104461EF0C1FA204610BD012908B518
:1026700006D0022908D059B900F02EFD006808BD27
:1026800000F02AFD4068FAE700F026FD8068F6E7D2
:102690000020F4E7004870476834020801207047C2
:1026A00013B5002451B1036801948DF8034001AAC9
:1026B0009C680DF10303A04702B010BD0846FBE77C
:1026C000C0897047008A7047C0887047808870470B
:1026D000807A00F07F007047807AC0097047002040
:1026E000704700009FED010A704700BF0000000026
:1026F000704710B5082104461EF077FA204610BD39
:102700007047704700F598730868496803C37047BD
:10271000704770474160704770470000064BC0F833
:102720004C310023C0F8503100F5A273C0F84801C5
:10273000C0F84031704700BFE12700080123037251
:1027400070477047704710B4C26841685410034620
:1027500001EB6200D20748BF0A599B685DF8044B41
:1027600048BFD358184743682BB183682BB9C0685A
:1027700000F001007047184670470120704710B5FF
:102780000C2104461EF031FA204610BD10B5102170
:1027900004461EF02AFA204610BD10B54FF4AE7163
:1027A00004461EF022FA204610BD10B50CF030FD94
:1027B0000368BDE81040DB6B184710B50446D0F83D
:1027C000400158B10368DB68984738B1D4F840013C
:1027D00003689B6898470023C4F8403110BD00008F
:1027E0002DE9F14FD0E9555A0746A86803681B6ADE
:1027F000984741F2E303984205D8464B464AA32145
:1028000046481FF039F9686803681B6A98470F2823
:1028100003D8434B404AA421F2E7E86803681B6AE7
:1028200098470B2803D83F4B3B4AA521E8E70CF01B
:10283000EFFCDFF8F89004300CF00FFDD9F8000041
:1028400010B10368DB689847D9F8000010B103683D
:102850001B689847DFF8D880D8F8000010B10368EB
:102860005B699847D7F83C0110B103685B689847EB
:10287000D8F8000010B103681B689847D7F83C01EE
:1028800010B103689B689847E868036800215B6A99
:1028900098474FF0000B244B03600446C0F804B087
:1028A00080F808B0A868036859465B6A98470646EE
:1028B00000F0ACFC6868036859465B6A984731468B
:1028C000054600F07DFCC9F80040C7F83C51C8F847
:1028D0000060E5B12B1DCAF800303368C5F808A0C8
:1028E0003046DB68F56398472B6828461B68984795
:1028F000214630460EF07AFC236820461B69984733
:1029000023685B69204601B0BDE8F04F18472B46AD
:10291000E1E700BF8C3402081A3502081E360208AF
:10292000653602080837020820380208C8D7002098
:10293000C4D70020044B1B6893F858200AB1D86C08
:1029400000B99868704700BF80D70020F8B50446EA
:1029500017460E460CF01EFD104B1C60104B2360FA
:10296000104B0025C4E951350F4BC4E95355186885
:10297000036829469B68C4E94F55C4E955769847D2
:10298000284600F05DFBFFF7D5FF16F090F8FFF743
:10299000D1FF16F007F92046F8BD00BFD4D70020BC
:1029A000CC370208B437020880D70020064BC0F8A5
:1029B0004C310023C0F8503100F5A273C0F8480133
:1029C000C0F84031704700BFE1270008406A7047F7
:1029D000806A704770478B88C0690A68DB0A50F8C4
:1029E00023001044704710B5C2B1137BB3B1547BC0
:1029F000D27A240204F4E0641443026A98B202EB2F
:102A0000840213888B4202D192F9020010BD05D8CE
:102A1000013880B204320028F3D1F7E70020F5E74F
:102A200010B52C2104461EF0E0F8204610BD000031
:102A300030B58BB00446BDF860500895BDF85C50C9
:102A400007959DF8505006959DF84C5005959DF8BA
:102A5000485004959DF8445003959DF840500295C8
:102A60009DF83C500195BDF8385000950EF018F8CF
:102A7000064B2360159BE361169B2362199B6362DF
:102A80001A9BA36220460BB030BD00BF4438020839
:102A90007047704770477047704730B503680181D1
:102AA00085B06D460146D3F88430044628469847E1
:102AB00095E807003C3484E8070005B030BD30B528
:102AC0000368418185B06D460146D3F884300446E1
:102AD0002846984795E807003C3484E8070005B08D
:102AE00030BD0022028042808280C280704780F820
:102AF0003610704770B5036804461B6B154698473F
:102B00002368294620465B6EBDE8704018470020C8
:102B10007047806C704770477047704710B54C2104
:102B200004461EF062F8204610BD10B541F2E401E3
:102B300004461EF05AF8204610BD08B5FEF753FDB6
:102B400008BD0000036870B55E6B124B1B6804463D
:102B50008DB22BB9104B114A6C2111481EF08CFF1D
:102B60001049828D0988914203D80F4B0B4A6D2181
:102B7000F3E713F812200D4B1B6853F8220003688B
:102B80001B6B9847281A01B233462046BDE87040B7
:102B9000184700BFD8D70020A4380208E63802083A
:102BA00021390208DCD7002068390208E0D700206C
:102BB00000224FF0FF31C0E900218260704770B5FC
:102BC000036804461B6B1546984723682946204630
:102BD0005B6BBDE87040184770B504461D46BDF9F3
:102BE0001060FFF7ECFF2368294620469B6B98474F
:102BF000236831462046DB6BBDE870401847000073
:102C00000022C0E90122C0E90322C0E90522C0E98F
:102C100007224FF480728284014A0260704700BF2D
:102C2000EC3902082DE9F04F044689B0A046002592
:102C30000EF030F95F4BE56348F8403B2622294609
:102C400040461FF01EF94046FFF7DAFF04F16C071B
:102C5000594B2364FF2626224FF6FF79294684F834
:102C600066603846A566ADF818901FF00AF9384638
:102C7000FFF7C6FF514BE366BDF81830A4F8923059
:102C8000384684F8946006A904F1980609F0C5FE58
:102C90002622294630461FF0F4F83046FFF7B0FFF1
:102CA0004FF47F03C4F8CC30454BC4F898304FF054
:102CB000FF33C4E93635DFF82CA1A4F8C4904FF4F3
:102CC000F0732A46009329464FF4487340464FF06C
:102CD0007F4B04F10409C4F8C0A0C4F8C850A4F89C
:102CE000D050C4F8D450C4F8E050FFF775FF414607
:102CF0004846C4F868B006F00DFF2A463846294613
:102D0000FFF75DFF384606A9ADF8185009F085FEBB
:102D10003946484606F0FEFE40F24B133622009339
:102D200040214FF41C733046FFF756FFD4F898301B
:102D3000C4F8C8B002AF3846D3F88430A4F8CC50F9
:102D40003146984797E8070004F1D40383E8070069
:102D50001C4B1B6804F1E4072BB91B4B1B4A602179
:102D60001B481EF089FE1B4B1B881BB91A4B174AC8
:102D70006121F5E7194B2946186800F09DF9184ABA
:102D800003464FF4006138460FF0EEFC012306A91C
:102D90003046C4F8E070ADF81C30CDF818A009F04A
:102DA00075FD4846314606F0B5FE204609B0BDE83F
:102DB000F08F00BFE43A0208204002088840020871
:102DC000543A0208D8D70020A4380208A6390208CD
:102DD00021390208DCD7002068390208E4D7002036
:102DE000DE390208843402087047000030B5164D01
:102DF0002C68BFF35B8F14F001048FB020D12846FC
:102E00001DF0F5FEE0B13F230993104B0893104BE2
:102E1000104911480A940122CDE906430423CDE963
:102E200003320A230093CDE90B44CDE90144059414
:102E3000FFF7FEFD09481EF03DFE28461DF0E3FEAB
:102E400005480FB030BD00BF8C3F0020A8490208E4
:102E5000544B020810D40B90903F0020E92D00083D
:102E60007047000030B5174D2C68BFF35B8F14F02E
:102E700001048FB022D128461DF0B9FEF0B13F23E6
:102E80000993114B0893114B07930123CDE90533A7
:102E900004930423CDE9024314230D4900935F22D8
:102EA0001823CDE90B440B480A940194FFF7C0FDA9
:102EB00009481EF0FFFD28461DF0A5FE05480FB08D
:102EC00030BD00BFBC3F0020AC490208584B02088F
:102ED00020D40B90C03F0020612E000870470000F6
:102EE00030B5164D2C68BFF35B8F14F001048FB022
:102EF00020D128461DF07BFEE0B13F230993104B03
:102F00000893104B104911480A940122CDE9064359
:102F10000423CDE9033228230093CDE90B44CDE906
:102F200001440594FFF784FD09481EF0C3FD2846BF
:102F30001DF069FE05480FB030BD00BFEC3F00201A
:102F4000504B02085C4B020854D90B90F03F002014
:102F5000DD2E000800207047002070470EB403B536
:102F600003AB002153F8042B01930DF09DF802B040
:102F70005DF804EB03B070470CB407B504AB53F82D
:102F8000042B01930DF090F803B05DF804EB02B050
:102F900070470000436C10B5044673B3038F2BB920
:102FA000184B194AC52119481EF066FDC38E00EB67
:102FB00043035B8C0BB30EF02EFE238F012B03D843
:102FC000134B144ACB21EEE7E28E531C9BB2092B24
:102FD000194688BFA3F10A0104EB410140F63F10F6
:102FE000498C814209D10A2B04EB420228BF0023FD
:102FF00004EB4303508C588451842046BDE81040B4
:103000000EF00CBD103B0208193B0208C43B02083D
:103010000E3C02081C3C02080EF0C7BC10B586B07E
:1030200002AC84E806001A460AAB05930193099B9B
:1030300000932146089B0BF089FC06B010BD0000F0
:1030400038B518BB124B13481C681349B4B1226839
:1030500022440260626822440A60A26814440F4B52
:1030600000221A8000F038F8054600F033F80C4BC7
:103070001C600C4B1D600C4B188007E00B4B036071
:103080000B4B0B600B4B1C68002CE8D138BD00BF0C
:103090001C40002020400020244000202840002028
:1030A000D8D70020E0D70020DCD700206CD90B90C7
:1030B00064D90B9088D90B90044B1B6853F82100FE
:1030C000034B1B6803EB4000704700BF2440002007
:1030D0002040002002207047004870472C4000200C
:1030E00010B5FFF7BFFE044C2060FFF7F9FE6060EB
:1030F000FFF77CFEA06010BD2C40002010B500241E
:1031000004600C6014601C6010BD704710B54FF473
:10311000AE7104461DF069FD204610BD10B5044691
:10312000D0F8580100F014F82046BDE810400CF02B
:10313000F1B8000010B50446FFF708FC014B23600E
:10314000204610BDF83C02080022026070470000D3
:1031500070B50E4D0446286804F0F3FCA8B10023B6
:103160000B4928681A4604F0BDFC70B9231D0849B4
:103170004FF4006218461EF08CFE03462068026879
:10318000BDE8704092681946104770BD343F00207A
:10319000384000207047043870477047C0680368A3
:1031A000DB6A1847A0F10400FFF7F8BF10B5102143
:1031B00004461DF01AFD204610BDA0F10400F5E7FD
:1031C00010B500228260044AC16002F10804243272
:1031D0000460426010BD00BF443D0208704700001B
:1031E00010B5034B03600446FFF795FC204610BD65
:1031F0007C3D020810B50446FFF7F2FF204641F27D
:10320000E4011DF0F2FC204610BD000010B504469C
:10321000FFF708FD014B2360204610BD7C3D0208EE
:10322000FFF77ABC10B5012380F8D1304FF0FF32A0
:103230000023C0E935320446C0F8DC304FF40062A8
:10324000E4300EF030FF04F19800BDE810400DF0BE
:1032500055B870470020704710B5044600F094FA46
:10326000A821E0B200F0ACFA80B210BD13B5002482
:103270000221C0B28DF8074000F0A2FA8DF80700D5
:103280009DF8073003F00F038DF807309DF80730E5
:10329000022B88BF8DF80740044B9DF807209DF84E
:1032A00007005A7000229A7002B010BD3A48002000
:1032B00073B5154C1546A37862789A420E461FD90D
:1032C00003B3012B14BF0021092104230DEB0302DA
:1032D000C0B200F093FA9DF804309DF805201B025F
:1032E00003F47063134333809DF806309DF8072084
:1032F0001B0203F4706313432B80A3780133A37084
:1033000002B070BD0321E0E73A4800200122A42169
:10331000C0B200F03BBA0022A421C0B200F036BA1D
:10332000FFF7F9BF7047000010B4094B1A789042BC
:103330000AD05978884207D00AB129B90122985495
:103340005DF8044B00F020BA5DF8044B704700BFF5
:103350003848002030B50446B1B078200D4600F062
:1033600065FAA34BA34A18689B88ADF8B430A24B0A
:10337000A2492C90CDE91423A14BA248DFF8A4C2A6
:10338000DFF8A4E2CDE916139F4BCDE9180340F214
:10339000BF13ADF804309D4BCDE91AC39C4BCDE96A
:1033A0001CE39C4B1E9303F180731F939A4B9A78F6
:1033B0008DF84620B3F80720ADF8BC20DA7A1988DA
:1033C0008DF84A2040F2B632D3F80300ADF844102D
:1033D000ADF80820B3F809102E9045F2B512ADF8FB
:1033E0004810ADF80C2099899A7B8DF84E208B4AB5
:1033F000ADF84C10106812798DF88C20884A229014
:103400004FF03C41CDE920124FF4DD72ADF81020B1
:103410003622D3F80F00ADF81420DA7C24908DF812
:10342000942058691A7E26908DF89C20D3F81900B4
:10343000289046F23602D3F81E00ADF818205A7FC5
:1034400093F822308DF8AC303523ADF81C301123C1
:10345000ADF820302923ADF8243047F65173ADF88C
:10346000283042F653438DF8A4202A90ADF82C3032
:1034700040F25523ADF830304FF65E73ADF834307E
:103480002C23ADF8383045F23A53ADF83C302CA936
:1034900047F23A730520ADF84030FDF73BFB14A925
:1034A0000320FDF737FB15A90320FDF733FB16A911
:1034B0000320FDF72FFB17A90320FDF72BFB18A90D
:1034C0000320FDF727FB19A90320FDF723FB01A922
:1034D0000120FDF71FFB1AA90320FDF71BFB1BA909
:1034E0000320FDF717FB1CA90320FDF713FB1DA903
:1034F0000320FDF70FFB1EA90320FDF70BFB1FA9FF
:103500000320FDF707FB11A90220FDF703FB2EA9FD
:103510000520FDF7FFFA12A90220FDF7FBFA02A928
:103520000120FDF7F7FA03A90120FDF7F3FA13A92B
:103530000220FDF7EFFA22A90420FDF7EBFA20A9FB
:103540000320FDF7E7FA21A90320FDF7E3FA04A918
:103550000120FDF7DFFA07A90020FDF7DBFA0020C4
:1035600010A9FDF7D7FAC82000F060F9002D34D17A
:1035700005A90120FDF7CEFA24A90420FDF7CAFA17
:1035800026A90420FDF7C6FA08A90020FDF7C2FA13
:10359000782000F04BF9022C0CBF0FA910A90120D4
:1035A000FDF7B8FA0AA90120FDF7B4FA0BA901202A
:1035B000FDF7B0FA0CA90120FDF7ACFA0DA9012026
:1035C000FDF7A8FA09A90020FDF7A4FA0EA900202A
:1035D000FDF7A0FA002031B030BD06A90120FDF7AB
:1035E00099FA28A90420FDF795FA2AA9C9E700BF8E
:1035F000AC3D0208030303B0464646B6030303B1DD
:10360000363636B7000002B2262626B8363636B928
:10361000262626BA008000BC082B0208B33D02080B
:10362000030000CC090909B3080808B570B52F4D8F
:1036300088B0284602F058FA0446002854D12C4A93
:103640002C4B2D4E0190C5E900234FF48043C5E972
:103650000200C5E90430C5E906002862336B43F077
:1036600002033363336B059003F002030193019B64
:103670004FF480711223CDE9031302200423CDE916
:10368000060303A91D4801F035FC4FF4007303A99C
:103690001A48039301F02EFC0294336C43F4001398
:1036A0003364336C03F400130293029B336A43F4D4
:1036B00000133362336A23F4001333622246052178
:1036C0001F2000F017FD1F2000F046FD22460521B7
:1036D000202000F00FFD202000F03EFD284608B01D
:1036E000BDE8704001F09EBF08B070BD40480020AA
:1036F00000540040801A06000038024000040240D6
:1037000010B586B0194B002400941A6B42F00102E8
:103710001A631B6B03F001030093009B69B901233B
:10372000CDE9013102230493114B039153F820009A
:1037300001A901F0DFFB06B010BD0129FBD1022376
:1037400004934FF488130293094B019153F820001E
:10375000039401A901F0CEFB22460F21062000F0C0
:10376000C9FC062000F0F8FCE5E700BF0038024085
:103770004800002008B5034B012153F8200001F058
:103780003FFD08BD48000020FFF750BF7FB5012373
:103790008DF817206422CDE901320DF11702009255
:1037A0000A460146054801F0FFFF20B1034801F039
:1037B000E1FFFFF73BFF07B05DF804FB4048002046
:1037C0007FB500230A468DF817304FF47A71012334
:1037D000CDE901310DF1170100910146064802F0D3
:1037E00073F820B1044801F0C5FFFFF71FFF9DF8F3
:1037F000170007B05DF804FB404800201FB54FF4E8
:103800007A74CDE90134009201230A460146064844
:1038100002F05AF8044620B1034801F0ABFFFFF76D
:1038200005FFA0B204B010BD4048002000F03CBC31
:1038300000B595B04FF480720C924FF08071052264
:1038400006920F9100220121CDE90312CDE90D224C
:10385000CDE911220B9213920092102202924FF4A2
:10386000800203460191059206A96A46044802F0C7
:10387000B6FC003818BF012015B05DF804FB00BF8E
:103880009448002000B595B04FF480730C93062344
:1038900006931748002341F2883206A9CDE90D337B
:1038A000CDE911330F930B93139302F054FCE0B95D
:1038B0000223CDE9003301221023CDE902324FF477
:1038C00080010523CDE905134FF0807304900F9319
:1038D000074841F288336A4606A902F080FC0038A6
:1038E00018BF012015B05DF804FB0120FAE700BF06
:1038F0009448002000B591B04FF480730893EB23F7
:1039000002934FF4406309934FF4005305934FF033
:1039100040720023CDE90A320A22079202A96A46C0
:1039200006480F93CDE90D33019302F0A8FC00384F
:1039300018BF012011B05DF804FB00BF94480020BF
:1039400070B588B02C4B2D48002400949A6B42F03F
:1039500002029A639A6B02F002020092009A9A693C
:1039600042F002029A619A6922F002029A6101947D
:103970001A6B42F002021A631A6B02F00202019201
:10398000019A02941A6B42F020021A631B6B03F037
:10399000200302934022029B0223CDE9032301214D
:1039A0000323CDE905130A2603A90925079601F08B
:1039B000A1FA4FF4806303A9114803930594079576
:1039C00001F098FA4FF4407303A90D48039307964A
:1039D00001F090FAC02303A909480393079501F069
:1039E00089FA22460F215B2000F084FB5B2000F067
:1039F000B3FB08B070BD00BF0038024000040240B5
:103A00000014024010B54A4C4A4B236090B0204647
:103A100002F08EFB014610B1012010B010BD20460F
:103A2000FFF78EFF0123C4E901331023E3604FF059
:103A3000807393FAA3F3B3FA83F3013B23614FF44A
:103A4000806200233A48C4E90523C4E9073302F041
:103A50001BFB0028E0D1CDE90900CDE90D004FF4B2
:103A6000807466230B9007900F9041F288323048A3
:103A7000089402A9029302F06EFB08B10420CCE77F
:103A800099232B48029341F2883202A902F063FB8A
:103A90000028F3D141F28830FFF7CAFE0028EDD1AB
:103AA000852302934FF080730B930123CDE9090026
:103AB000CDE90C30CDE90E00079041F288321C4868
:103AC000089402A902F047FB0028D7D1184841F218
:103AD00088320DF1070102F0B7FC0028CED1FFF7C4
:103AE000D1FE0028CAD1812302939DF807301048E7
:103AF0000A21F02292FAA2F2B2FA82F201FA02F25A
:103B000003F00F03134302A941F288328DF8073006
:103B100002F021FB0028B1D1054841F288320DF1B5
:103B2000070102F035FC00283FF477AFA6E700BF9D
:103B300094480020001000A008B55B2000F01AFB9C
:103B40001448402101F0BCFA13484FF4806101F0A1
:103B5000B7FA11484FF4807101F0B2FA0E484FF4F1
:103B6000007101F0ADFA0C48802101F0A9FA0A4871
:103B7000402101F0A5FA094B9A6942F002029A61CC
:103B80009A6922F002029A619A6B22F002029A6309
:103B900008BD00BF0004024000140240003802408B
:103BA00038B5084D084B2B60284602F0C1FA044690
:103BB00028B901462846FFF7BFFF204638BD01243B
:103BC000FBE700BF94480020001000A02DE9F74358
:103BD000214C224D01264FF0000810272146814636
:103BE0004FF6FF722846C4E90067C4E90268CDF8C1
:103BF000048003F0D7F8304600F056FA022321463D
:103C00004FF6FF722846C4E90037C4E9026803F0A2
:103C1000C9F80323C4E90037214608234FF6FF7291
:103C20002846C4E9023803F0BDF84FF40C73019341
:103C30000423C4E900372146019BA6604FF6FF72BA
:103C40002846E36003F0AEF84946284603B0BDE8D5
:103C5000F04303F0C5B800BFE0480020CC49002085
:103C600070B506468EB0002800F0BD805F4B6048FE
:103C7000604C002500959A6B42F001029A639A6BA2
:103C800002F001020092009A01951A6B42F4800240
:103C90001A631A6B02F480020192019A02951A6B60
:103CA00042F004021A631A6B02F004020292029AB2
:103CB00003951A6B42F008021A631A6B02F00802AD
:103CC0000392039A04951A6B42F010021A631A6B5E
:103CD00002F010020492049A05951A6B42F0200239
:103CE0001A631A6B02F020020592059A06951A6B68
:103CF00042F040021A631A6B02F040020692069AE2
:103D000007951A6B42F080021A631A6B02F0800268
:103D10000792079A08951A6B42F480721A631B6B1C
:103D200003F4807308930222089B0C920123CDE9CF
:103D30000A2309A90C220D92099301F0DBF84CF239
:103D400003732D48099309A901F0D4F84FF6837342
:103D50002A48099309A901F0CDF84FF63F032848F6
:103D6000099309A901F0C6F848F2331325480993CD
:103D700009A901F0BFF84FF60C732348099309A96C
:103D800001F0B8F840F2FF632048099309A901F057
:103D9000B1F880224FF40073C4E902234FF480612C
:103DA0004FF48053C4E904134FF48043C4E906354B
:103DB0004FF40033C4E908350323C4E90A35256309
:103DC000134B3463204623606560A66300F088FAD5
:103DD000204600F007FA38202A46052100F08AF92B
:103DE000382000F0B9F90EB070BD00BF00380240B5
:103DF000000802406C490020000C02400010024004
:103E00000014024000180240001C02400020024042
:103E10001064024038B5194C194D1A4B2360072124
:103E200002230422C5E90031C5E90221C5E90433B2
:103E3000AB61E26040232022C4E9042300214FF457
:103E4000C073C4E906314FF400604FF48053C4E9F5
:103E500008032046C4E90111A162FFF701FF2946CA
:103E6000204602F071FF084C003818BF0120207076
:103E700040F26950FFF7AAFE207838BDCC490020F7
:103E8000F0480020400100A04D00002008B548B1D6
:103E9000382000F06FF90448044B0360BDE8084087
:103EA00000F01EBA08BD00BF0C490020106402409B
:103EB00038B5074C074B2360204602F065FF064DDE
:103EC000014618B928702046FFF7E0FF287838BD72
:103ED000CC490020400100A04C0000202DE9F04119
:103EE000164D174C2B68064620780F4698476B688E
:103EF00054209847C0B211280AD06B6870209847A8
:103F0000C0B270231128237004D00320BDE8F081D3
:103F1000542323700B4BDFF830802078C8F8005012
:103F2000BE4234BF01210C211970AB689847D8F804
:103F300000302078DB6898470020E7E72000002069
:103F4000004A0020184A0020144A00202DE9F04FB2
:103F5000DFF8D8B0324ADBF8003006461B6910782B
:103F600085B09847307050B12E4FDFF8C480B2460C
:103F700003AD02A94FF0000933784B4503D8002068
:103F800005B0BDE8F08FDBF8003025485B690078AC
:103F900001912A469847244B01991B7813F0080F8A
:103FA0001FBF0A88288808802A809A0741BF0A888C
:103FB000C2F5477203320A805B0748BF2B883A6814
:103FC00031F8020B42BFC3F5EF7301332B8093B27C
:103FD00090428CBFC31A1B1A9BB235F8022B019377
:103FE000D8F800309CB29A428CBF141BA41A019BD3
:103FF000A4B22344052BBC46C8BF3860DCF80030AF
:10400000C8BFC8F80020C6462AF8023FDEF80030D4
:10401000AAF80430043708F1040809F10109ABE7F4
:10402000004A0020044A0020184A0020144A0020B8
:104030000C4A0020054BD3F8882042F47002C3F8E4
:1040400088204FF000629A60704700BF00ED00E0EA
:1040500008B50B4B1A6842F400721A601A6842F4F1
:1040600080621A601A6842F480721A60032000F0BD
:104070002FF80020FEF714FAFDF7C2FE002008BD5D
:10408000003C0240034A044B11681B780B44136048
:10409000704700BF1C4A002054000020014B1868E4
:1040A000704700BF1C4A002038B50446FFF7F6FFF2
:1040B000631C1CBF054B1B78054618BFE418FFF7AF
:1040C000EDFF431BA342FAD338BD00BF54000020CC
:1040D0000749CA6822F4E0620302120403F4E063B1
:1040E000120C134343F0BF6343F40033CB607047BB
:1040F00000ED00E0164B30B5DC68C4F30224C4F1D7
:104100000703251D042B28BF0423062D4FF0FF3580
:104110008CBF033C002405FA03F321EA0303A54006
:1041200022EA0502A340002843EA0203ACBF00F1E3
:104130006040084A4FEA0313B8BF00F00F00DBB23B
:10414000AABF00F56140135480F8003330BD00BFB2
:1041500000ED00E014ED00E0002807DB044A41090F
:10416000012300F01F00834042F82130704700BF58
:1041700000E100E000280CDB4309064900F01F00C5
:1041800020330122824041F82320BFF34F8FBFF339
:104190006F8F704700E100E010B5044650B14379DD
:1041A00003F0FF0213B90271FDF74AFE01236371A8
:1041B000002010BD0120FCE7036810B5DAB2103A08
:1041C000074C23F47F7323F003035F2A88BF043373
:1041D0001821B2FBF1F1615CC1658365184610BD21
:1041E000D13D020870B50446FFF758FF0546002C84
:1041F00071D0022384F835302268002384F83430EB
:10420000136823F00103136022681368D8072ED4C3
:1042100013683248A1691840D4E901352B43E56899
:104220002B4325692B4365692B43E5690B432B43DE
:10423000256A2B430343606A042802BFD4E90B5666
:1042400035432B4313605369042823F0070343EAE3
:10425000000332D1A06AE56A034375B391B901281E
:1042600020D030F0020128D1E90126D51DE0FFF76A
:1042700015FF401B0528C7D920236365032084F858
:10428000350070BDB1F5005F13D1032815D801A129
:1042900051F820F0AB42000869420008AB42000828
:1042A000A5420008B5F1C07F07D140236365012016
:1042B000E5E70228F9D90328D6D053612046FFF755
:1042C0007BFFE26D3F239340836000200123606504
:1042D00084F83530D5E70120D3E700BF3F8010F0E8
:1042E00038B5054620B390F83530022BDCB21DD02E
:1042F00003681A6822F0010200241A6021221C605F
:104300005C609C60DC601C615A61FFF755FFEA6DE0
:104310003F239340C5E90F44C5E91144C5E913445F
:1043200083606C6585F8344085F83540204638BD9B
:104330000124FBE770B50446866DFFF7AFFE94F8E5
:104340003530022B054606D080236365012000230B
:1043500084F8343070BD23681A6822F016021A609F
:104360005A6922F080025A61226C0AB9A26C1AB111
:104370001A6822F008021A601A6822F001021A6014
:1043800023681B6813F0010308D1E16D3F228A40C6
:10439000B260012284F835201846D8E7FFF77EFE88
:1043A000401B0528ECD920230320636584F83500E1
:1043B000CDE790F83530022B03D0802343650120F0
:1043C00070470268052380F83530136823F0010335
:1043D0001360002070470000F7B5002301935C4B89
:1043E000856D1F68C36D2E6808229A4032420446CC
:1043F0000CD001680868400708D5086820F0040060
:104400000860AA60626D42F00102626501229A4072
:10441000324208D021684969090641BFAA60626D2D
:1044200042F00202626504229A40324208D02168BA
:104430000968880741BFAA60626D42F004026265A4
:1044400010229A40324210D02368196809070CD50F
:10445000AA601A68500337D51B68190301D4236C6E
:1044600000E0A36C0BB120469847E16D20228A4002
:1044700032423AD023681868C60636D5AA6094F846
:104480003520052A1A6827D122F016021A605A69C7
:1044900022F080025A61226C0AB9A26C1AB11A6821
:1044A00022F008021A603F238B40AB60012384F89E
:1044B0003530002384F83430236D002B45D020465E
:1044C00003B0BDE8F04018471A68D2055EBF1A680D
:1044D00022F008021A60C2E7500327D51B681903AF
:1044E00031D4636C0BB120469847636D6BB3636D39
:1044F000DA0719D522684FF41653B7FBF3F70523F3
:1045000084F83530136823F001031360019B0133F5
:10451000BB42019302D81368DB07F7D4012384F868
:104520003530002384F83430E36CC6E71A6812F49F
:10453000807208D1196821F010011960012384F8F4
:10454000353084F83420E36BCCE703B0F0BD00BF16
:104550005000002010B5044630B390F8393003F015
:10456000FF021BB980F83820FDF782FC22686168E1
:10457000022384F83930136823F440330B4313606B
:10458000536BA16823F007030B435363136CE1687B
:1045900023F47F5323F03F030B43136400200123D4
:1045A000E06384F8393010BD0120FCE770477047A4
:1045B000036870B55E681D68F207044614D5E90506
:1045C00012D51A6822F480721A60C26B42F001029E
:1045D000C26301229A60042380F83930002380F8F6
:1045E0003830436903B19847B20616D5AB0414D5E9
:1045F00023681A6822F400521A6020229A60E36B42
:1046000043F00203E363042384F83930002384F881
:10461000383063690BB120469847300716D5290515
:1046200014D523681A6822F400621A6008229A607E
:10463000E36B43F00403E363042384F8393000237D
:1046400084F8383063690BB12046984772070BD560
:104650006B0509D523681A6822F480621A60042267
:104660009A602046FFF7A2FFB00714D5A90512D51E
:1046700023681A6822F400721A6002229A60E36BBF
:10468000E363012384F83930002384F83830236948
:104690000BB120469847F20613D5EB0411D52368D9
:1046A0001A6822F480521A6010229A60E36BE36366
:1046B000012384F83930002384F838302046FFF78E
:1046C00076FF70BDF0B590F83830012B4FF0020343
:1046D0002BD0012280F8393080F8382000EB01130C
:1046E000D3E907425D6A184F44EA0242093C012CB3
:1046F0009CBF05F07F431A434FEA0116036888BF49
:1047000042EA056299B9596A39400A435A62012C52
:1047100082699A6103D8426A22F07F429A62012339
:1047200080F83930002380F838301846F0BDD96958
:1047300039400A43DA618219012C92691A619CBFDF
:1047400025F07F451D62EAE7F0FFFC002DE9F0410E
:1047500007460D4614461E46FFF7A0FC80463A6801
:10476000536FDB070AD5069944EA062343EA01435F
:1047700043EA8513D3660020BDE8F081FFF78EFC85
:10478000A0EB0800B0F57A7FE9D90320F4E7037CB9
:10479000012B5DD003680022C3F8C420C3F8C820F1
:1047A000CA0748BFD3F8C420816142BF6FEA1242F2
:1047B0006FEA0242C3F8C4208A0742BFD3F8C4207C
:1047C00042F4F812C3F8C4204A0742BFD3F8C82005
:1047D00042F00102C3F8C8200A0742BFD3F8C8203C
:1047E00042F00202C3F8C820CA0642BFD3F8C8206C
:1047F00042F00C02C3F8C8208A0642BFD3F8C82092
:1048000042F01002C3F8C8204A0642BFD3F8C820BD
:1048100042F02002C3F8C8200A0642BFD3F8C820DD
:1048200042F04002C3F8C820CA0542BFD3F8C820EE
:1048300042F08002C3F8C8208A0542BFD3F8C820DE
:1048400042F4F852C3F8C820002303741846704796
:104850000220704773B50D460446002800F0A98079
:10486000437C0BB9FDF726FB0323637400230093FD
:104870002368D3F8302442F08072C3F83024D3F890
:10488000303403F080730093009BFFF707FC06466B
:104890002268D2F80C34D9047AD5D2F8303423F413
:1048A0005E3323F4FE73C2F83034D5E90003DB0233
:1048B00043EA8003A868D2F8301443EA00430B436C
:1048C000C2F8303400230193D2F8303443F00103AE
:1048D000C2F83034D2F8303403F0010301930120E0
:1048E000019BFFF7E1FBFFF7D9FB06462368D3F8EE
:1048F0000C24D20556D5D3F8A020616842F00602F8
:10490000C3F8A020D3F8942022F00302C3F8942027
:10491000D3F894200A4342F00102C3F89420D3F85C
:10492000A420E16822F00302C3F8A420D3F8A42055
:104930000A43C3F8A4209A68A16822F0FF029A6093
:104940009A680A439A606A681B49012A38BF0122A3
:104950004A43A96801F003018A4029684FF4FA50DC
:104960004143B2FBF1F2D3F8181421F03F01C3F830
:104970001814D3F8181400200A43C3F81824C3F8F5
:10498000C400C3F8C80001236061A061637407E03C
:10499000FFF784FB801BB0F57A7F7FF679AF0320A9
:1049A00002B070BDFFF77AFB801BB0F57A7F9DD90E
:1049B000F5E70120F4E700BF00093D0070470368F8
:1049C000D3F80C24D10710B5044608D5D3F8082431
:1049D000D20704D50122C3F81024FCF7EFF82368AE
:1049E000D3F80C24910709D5D3F80824920705D5EC
:1049F0000222C3F810242046FCF714F9A369002B07
:104A00004ED02168D1F8BC20D1F8C4301A40D1F87A
:104A1000C030D1F8C8100B4091B219B1616941F0B2
:104A20000101616112F4F81F1EBF626942F00202C7
:104A30006261D80742BF626942F00402626199076D
:104A400042BF626942F00802626113F00C0F1EBFA0
:104A5000626942F010026261DA0642BF626942F0A6
:104A600020026261980642BF626942F040026261C0
:104A7000590642BF626942F0800262611A0642BF73
:104A8000626942F48072626113F4F85F1EBF636969
:104A900043F400736361636913B12046FFF78EFF2F
:104AA00010BD037C012B0BD003681A6B22F00302AC
:104AB0001A631A6B11431963002303741846704775
:104AC0000220704730B5037C012B6AD003680C6864
:104AD0005A6B42F001025A63D3F8002422F001021B
:104AE000C3F80024D3F8002442F00102C3F80024E4
:104AF000DA6822F00302DA60DA682243DA605A697F
:104B000022F007025A61D1E906522A434D695C69D5
:104B10002A4322435A611A694C6822F00F021A6133
:104B20001A6922431A61D3F8002422F00E02C3F856
:104B30000024D3F8002442EA4402C3F800245A6E49
:104B40008C68120C12045A665A6E22435A66D3F8C5
:104B5000002422F0F002C3F80024D1E903252A43FF
:104B60004D6AD3F800442A430D6A896A2A432243D6
:104B7000C3F800249A6E22F001029A669A6E0A43E4
:104B80009A66D3F8082442F00102C3F80824D3F847
:104B9000082442F00202C3F80824002303741846D4
:104BA00030BD0220FCE7000030B5037C012B2AD089
:104BB0000268164B946E23409366D1E900352B436F
:104BC0008D68946E2B43CD682B430D692B434D6943
:104BD0002B438D692B43CD692B430D6A2B434D6AC3
:104BE0002B438D6A2B43CD6A096B2B43234393667A
:104BF000936E23F002039366936E0B439366002338
:104C00000374184630BD0220FCE700BFFF80F0FEB1
:104C1000037C012B0BD00368DA6A22F01F02DA62F0
:104C2000DA6A1143D96200230374184670470220E0
:104C3000704730B5037C012B35D0D1E900439C424D
:104C400038BF1C460368D3F8982002F0FC22C3F852
:104C50009820D3F8982042EA04422243C3F89820CF
:104C6000D3F89C2002F40042C3F89C20D1E902252D
:104C7000120642EA05420D69D3F89C4049692A436D
:104C80002243C3F89C20D3F8A42022F47F42C3F827
:104C9000A420D3F8A42042EA0122C3F8A4200023D0
:104CA0000374184630BD0220FCE7000030B5037CD9
:104CB000012B5CD003680C689A688D6822F47F42EF
:104CC0009A609A6842EA04229A609A6F4C6892B29B
:104CD0009A679A6F42EA04429A679C6F254A144089
:104CE0009C679C6F2C439C67DC6FCD681440DC672D
:104CF000DC6F2C43DC67D3F880400D691440C3F8A7
:104D00008040D3F880402C43C3F88040D3F88440DF
:104D10004D691440C3F88440D3F884402C43C3F851
:104D20008440D3F8844024F08074C3F88440D3F8DE
:104D300084408D692C43C3F88440D3F88840CD6902
:104D4000096A1440C3F88840D3F888402C43C3F85C
:104D50008840D3F88C402240C3F88C20D3F88C20B4
:104D60000A43C3F88C2000230374184630BD022088
:104D7000FCE700BF0000FFFF037C012B82B01CD0CA
:104D8000026800230093516841F0010151605168AD
:104D900001F00101009100990193D2F8041441F04F
:104DA0000801C2F80414D2F80424037402F00802C3
:104DB0000192019A184602B070470220FBE7037C7B
:104DC000012B1FBF0268D2F8043443F00403C2F879
:104DD00004341DBF0023037418460220704737B502
:104DE000057C012D044609D001250574069D00951A
:104DF000FFF7ACFC0023237403B030BD0220FBE7B7
:104E00002DE9F84F1C46037C012BDDE90A98064684
:104E10000F46154655D001230374FFF73FF983462B
:104E2000D6F800C0DCF8743013F0010A1CD0032C53
:104E300021464FF0000228BF03218A4220D1A31A45
:104E4000CCF8709042441BBB0134220245EA871122
:104E500092B2240241EA020504F47F042543CCF80F
:104E60006C501846337409E0FFF718F9A0EB0B00FB
:104E7000B0F57A7FD4D986F810A00320BDE8F88F6A
:104E800018F802300132D000834049EA0309D4E720
:104E9000042B4FF000009E46014628BF4FF0040E41
:104EA00012F801804FEAC109013108FA09F88E456C
:104EB00040EA0800F4D1CCF87000A3EB0E03724472
:104EC000C1E70220DAE7037C012B10D00368D3F896
:104ED0001C2422F0C062C3F81C24D3F81C2442EA2C
:104EE0004161C3F81C140023037418467047022064
:104EF000704700002DE9F74FDFF8C0916D4A00239D
:104F00000D6801249C4004EA050CAC4340F0B980D4
:104F10004D6805F003044FEA43080326671E06FAAE
:104F200008F6012F6FEA060634D8876807EA060EEE
:104F3000CF6807FA08F747EA0E078760476827EA4D
:104F40000C0EC5F300179F4047EA0E074760C7687D
:104F500007EA060E8F6807FA08F747EA0E07022CE1
:104F6000C76019D14FEAD30A00EB8A0A03F0070B96
:104F7000DAF820704FEA8B0B4FF00F0E0EFA0BFE93
:104F800027EA0E0E0F6907FA0BF747EA0E07CAF871
:104F9000207001E0032CDAD1076804FA08F43740E6
:104FA0003C4315F4403F04606BD04FF0000ACDF84D
:104FB00004A0D9F84460404C46F48046C9F84460E7
:104FC000D9F8446006F480460196019E23F003065A
:104FD00006F1804606F59C3603F0030ED6F80880ED
:104FE0004FEA8E0E0F2707FA0EF7A04228EA0707AE
:104FF0004ED004F58064A0424CD004F58064A042F9
:105000004AD004F58064A04248D004F58064A042F0
:1050100046D004F58064A04244D004F58064A042E8
:1050200042D004F58064A04240D004F58064A042E0
:105030003ED004F58064A0420CBF09240A2404FA7F
:105040000EF43C43B46094686FEA0C06EF0254BF60
:1050500034404CEA04049460D468AF0254BF344036
:105060004CEA0404D4605468AF0354BF34404CEAA3
:10507000040454601468ED0354BF34404CEA040443
:1050800014600133102B7FF43BAF03B0BDE8F08F09
:105090005446D4E70124D2E70224D0E70324CEE724
:1050A0000424CCE70524CAE70624C8E70724C6E79A
:1050B0000824C4E7003C01400000024000380240E0
:1050C0002DE9F04F494CDFF82C91DFF82CA1DFF8E7
:1050D0002CB10022012303FA02FE3EEA01050EEA8A
:1050E00001076CD122F0030505F1804505F59C35DB
:1050F0003F4BD5F8088002F0030C4FEA8C0C0F26CA
:1051000006FA0CF6984206EA08085DD003F58063BB
:1051100098425BD003F58063984259D003F58063D1
:10512000984257D003F58063984255D0484555D0F2
:10513000504555D0584555D003F58053984253D02B
:1051400003F5806398420CBF09230A2303FA0CF38A
:10515000434513D1236823EA07032360636823EAE6
:1051600007036360E36823EA0703E360A36823EAB5
:105170000703A360AB6823EA0603AB60056856002B
:105180000323B34025EA03050560D50800EB850538
:1051900002F0070C2E6A4FEA8C0C0F2707FA0CF767
:1051A00026EA07062E62C56825EA0305C56045683C
:1051B00025EA0E054560856825EA03038360013210
:1051C000102A87D1BDE8F08F0023BFE70123BDE798
:1051D0000223BBE70323B9E70423B7E70523B5E7B9
:1051E0000623B3E70723B1E70823AFE7003C0140FC
:1051F000000002400014024000180240001C02405F
:105200000369194214BF0120002070470AB181616F
:1052100070470904FBE7436901EA030221EA03013D
:1052200041EA02418161704701684B6913F4806370
:105230004FF0000210D06FF480634B6120230263B3
:1052400080F83D3080F83E20036C80F83C2043F02D
:105250000403036401207047184670472DE9F8469F
:1052600006460F4691461D464FEA114A3368BAF189
:10527000010F0CBF5C699C6927EA0404A4B2B4FA6C
:1052800084F46409A14501D0002025E06A1CEED019
:10529000FEF704FF089BC01AA84201D8002DE5D1F3
:1052A0003368BAF1010F0CBF5B699B6927EA0303FE
:1052B0009BB2B3FA83F35B099945D7D1002320222F
:1052C000336386F83D2086F83E30326C86F83C30F9
:1052D00042F0200232640120BDE8F8862DE9F04159
:1052E00004460F46164698462568686927EA000076
:1052F00080B2B8B16B695A0516D52B6843F40073B8
:105300002B606FF480636B6120220023236384F899
:105310003D2084F83E30226C42F00402226484F87E
:105320003C300120BDE8F081731CDED0FEF7B6FEF4
:10533000A0EB0800B04201D8002ED5D123685A69ED
:1053400027EA020292B2002ACED000232022236351
:1053500084F83D2084F83E30226C42F02002DDE7E4
:1053600070B504460D46164623685B691B0601D5D9
:10537000002070BD2046FFF757FFC8B96A1CF3D064
:10538000FEF78CFE801BA84201D8002DECD12368CB
:105390005B6913F08003E7D12022236384F83D206A
:1053A00084F83E30226C84F83C3042F020022264C3
:1053B0000120DEE72DE9F0431546026885B0DDE9FE
:1053C0000C789946136843F4807313600E463B468D
:1053D000CDF8008000224FF001110446FFF73EFF98
:1053E000236838B11B68DB0502D54FF400732364D2
:1053F00003200AE006F0FE061E61194943463A46BC
:105400002046FFF76BFF18B1012005B0BDE8F0831F
:10541000236803905A6903929B6903934246394675
:105420002046039BFFF79CFF40B1236C042B01BF78
:105430002268136843F400731360E5E7B9F1010FC4
:10544000236802D1EDB21D61DFE72A0A1A613946ED
:1054500042462046FFF784FF0028E6D12368F1E7A3
:10546000020001002DE9FF479A46036815461A68B5
:1054700042F480621A601A68DDE90C7842F48072A6
:105480001A600E463B46CDF8008000224FF0011115
:105490000446FFF7E3FE236848B11B68DB0502D52D
:1054A0004FF400732364032004B0BDE8F0875FFA73
:1054B00086F906F0FE061E612A4943463A46204612
:1054C000FFF70CFF08B10120EEE7236803905A694B
:1054D00003929B690393424639462046039BFFF79C
:1054E0003FFF40B1236C042B01BF2268136843F4D3
:1054F00000731360E7E7BAF1010F23681AD1EDB228
:1055000042461D6139462046FFF72AFF0246002821
:10551000E8D121680B6843F480730B602046CDF816
:1055200000803B464FF00111FFF798FE226860B102
:105530001368B3E72A0A1A61394642462046FFF744
:105540000FFF0028CED12368D9E749F0010313618A
:10555000044943463A462046FFF7C0FE003818BFCC
:105560000120A1E70200010070B504460D46164671
:1055700023685B695B0701D5002070BD2046FFF7FB
:1055800053FEC8B96A1CF3D0FEF788FD801BA84201
:1055900001D8002DECD123685B6913F00403E7D137
:1055A0002022236384F83D2084F83E30226C84F866
:1055B0003C3042F0200222640120DEE770B5044650
:1055C0000D46164621684B6913F0400301D00020B8
:1055D00010E04A69D2060ED56FF010024A6120220F
:1055E000236384F83D2084F83E30226C226484F8E2
:1055F0003C30012070BDFEF751FD801BA84201D850
:10560000002DDFD123685B6913F04003DAD120223B
:10561000236384F83D2084F83E30226C42F020025F
:10562000E4E7000070B5044608B9012070BD90F8A9
:105630003D3003F0FF021BB980F83C20FCF776FCFC
:10564000242384F83D3023681A6822F001021A608E
:105650001A6842F400421A601A6822F400421A6082
:1056600001F01CF83F4B65689D4294BF3E4B3F4B99
:1056700098428CBF00230123002BD6D12268394EDB
:1056800051683B4BB0FBF3F321F03F011943B542A6
:10569000516088BF4FF49676116A88BF734321F03A
:1056A0003F0184BF4FF47A76B3FBF6F301330B432B
:1056B0001362D169431E2B4821F44F41854221F0EA
:1056C000FF0132D86D0040F6FC70B3FBF5F30133F7
:1056D000034242D0C3F30B031943D161D4E907302D
:1056E0001168034321F0C0010B4313609168D4E9B2
:1056F000030321F40341034321F0FF010B439360B3
:10570000D4E90530D168034321F0FF010B43D36096
:10571000136843F00103136000202023206484F801
:105720003D30206384F83E0080E7A06850B905EB67
:105730004505B3FBF5F30133C3F30B037BB143F42E
:105740000043C9E719206843B3FBF0F30133C3F307
:105750000B0323B143F44043BEE70423BCE701231A
:10576000BAE700BFA08601007F841E00FF083D004D
:1057700040420F0010B5044698B10268242380F817
:105780003D30136823F001031360FCF713FC002085
:10579000206484F83C0084F83D00206384F83E00D7
:1057A00010BD0120FCE700002DE9F74304469946AF
:1057B0000C9E0F469046FEF771FC94F83D30202B6E
:1057C000054603D0022003B0BDE8F08300903C49B9
:1057D000192301222046FFF741FD0028F2D194F859
:1057E0003C30012BEED02068012384F83C30036864
:1057F000D9075EBF036843F001030360036823F425
:1058000000630360212384F83D30402384F83E3058
:10581000002323640A9B6362BDF82C306385638D8B
:105820002385284BE362CDE900654B464246394665
:105830002046FFF7BFFD00282AD00120C3E7FFF76D
:105840008FFD40B1236C042B01BF2268136843F421
:1058500000731360F1E7636A27681A4612F8011BA8
:1058600039616262628D218D013A92B262857A69F4
:10587000481E80B2520720850AD548B15A783A614D
:1058800002336362638D013B02399BB221856385DC
:10589000238D2A4631462046002BD0D1FFF764FEE7
:1058A0000028CFD12268136843F4007313602023CB
:1058B00084F83D3084F83C0084F83E0083E700BF64
:1058C000020010000000FFFF2DE9F043044687B0FE
:1058D0009946109F0D469046FEF7E0FB94F83D3048
:1058E000202B064604D00225284607B0BDE8F083E9
:1058F00000907A49192301222046FFF7AFFC0028C7
:10590000F1D194F83C30012BEDD02068012384F8CC
:105910003C300368DB075EBF036843F001030360AC
:10592000036823F400630360222384F83D3040239E
:1059300084F83E30002323640E9B6362BDF83C3044
:105940006385638D2385664BE3622946CDE9007646
:105950004B4642462046FFF785FD054608B1012526
:10596000C2E7228D2368B2B902905A6902929A69FD
:105970000292029A1A6842F400721A60DFF8648197
:10598000238D002B2CD1202284F83D2084F83C303C
:1059900084F83E30A8E7012A0AD11A6822F480620E
:1059A0001A6003905A6903929A690392039AE1E795
:1059B000022A0ED11A6822F480621A601A6842F430
:1059C00000621A6004905A6904929B690493049BD4
:1059D000D4E705905A6905929B690593059BCDE72D
:1059E000032B56D8012B15D1324639462046FFF7F6
:1059F000E5FD0028B3D123681A69636A1A70636AE7
:105A000001336362238D013B2385638D013B9BB290
:105A10006385B5E7022B00963B464FF000024146F6
:105A2000204619D1FFF71AFC002898D123681A687C
:105A300042F400721A601A69636A1A70626A531C2F
:105A40006362238D013B2385638D013B9BB263859C
:105A500023681B695370D2E7FFF700FC0246002859
:105A60007FF47DAF2368196821F48061196019699A
:105A7000636A1970636A009601336362238D013B88
:105A80002385638D013B9BB2638541463B4620469F
:105A9000C8E7324639462046FFF790FD00287FF4DC
:105AA0005EAF23681A69636A1A70628D616A013A8F
:105AB00092B24B1C628522686362238D5069013B60
:105AC0009BB2400723857FF55BAF032B02BF1368B2
:105AD00023F48063136013694B7090E70200100099
